:100000000C9462000C948A000C948A000C948A0070
:100010000C948A000C948A000C948A000C948A0038
:100020000C948A000C948A000C948A000C948A0028
:100030000C948A000C948A000C948A000C948A0018
:100040000C948F030C948A000C945D030C9437037A
:100050000C948A000C948A000C948A000C948A00F8
:100060000C948A000C948A000000000024002700F1
:100070002A000000000023002600290000000000E4
:10008000250028002B0004040404040404040202D4
:100090000202020203030303030301020408102007
:1000A0004080010204081020010204081020000012
:1000B0000008000201000003040700000000000027
:1000C0000000CE0511241FBECFEFD8E0DEBFCDBFAC
:1000D00011E0A0E0B1E0EAEDF0E102C005900D9280
:1000E000AE34B107D9F721E0AEE4B1E001C01D9212
:1000F000AA3FB207E1F710E0C2E6D0E004C02197C2
:10010000FE010E946008C136D107C9F70E941E0493
:100110000C946B080C940000E0915D01F0915E017D
:100120000190F081E02D682F8DE591E00994E7EBD7
:10013000F0E02491E3EAF0E09491EFE8F0E0E4915C
:10014000EE2309F43BC0222339F1233091F038F437
:100150002130A9F0223001F524B52F7D12C02730BF
:1001600091F02830A1F02430B9F4209180002F7D47
:1001700003C0209180002F77209380000DC024B50C
:100180002F7724BD09C02091B0002F7703C02091A4
:10019000B0002F7D2093B000F0E0EE0FFF1FE45879
:1001A000FF4FA591B4912FB7F894EC91811103C042
:1001B00090959E2301C09E2B9C932FBF0895CF92B4
:1001C000DF92EF92FF920F931F93CF93DF936C0117
:1001D0007A018B01C0E0D0E0CE15DF0589F0D801AF
:1001E0006D918D01D601ED91FC910190F081E02D92
:1001F000C6010995892B11F47E0102C02196ECCF2E
:10020000C701DF91CF911F910F91FF90EF90DF9089
:10021000CF900895089580E090E00895FC01538DFB
:10022000448D252F30E0842F90E0821B930B5417D0
:1002300010F0CF96089501970895FC01918D828D5D
:10024000981761F0828DDF01A80FB11D5D968C912A
:10025000928D9F5F9F73928F90E008958FEF9FEF35
:100260000895FC01918D828D981731F0828DE80FF1
:10027000F11D858D90E008958FEF9FEF0895FC01AB
:10028000918D228D892F90E0805C9F4F821B910978
:100290008F73992708958DE591E00E943F0121E039
:1002A000892B09F420E0822F0895FC01848DDF0161
:1002B000A80FB11DA35ABF4F2C91848D90E00196D9
:1002C0008F739927848FA689B7892C93A089B189C8
:1002D0008C9180648C93938D848D981306C00288D2
:1002E000F389E02D80818F7D80830895EF92FF92C6
:1002F0000F931F93CF93DF93EC0181E0888F9B8D49
:100300008C8D981305C0E889F989808185FD24C00A
:10031000F62E0B8D10E00F5F1F4F0F731127E02E8D
:100320008C8DE8120CC00FB607FCFACFE889F9896A
:10033000808185FFF5CFCE010E945501F1CF8B8DD5
:10034000FE01E80FF11DE35AFF4FF0820B8FEA899F
:10035000FB898081806207C0EE89FF896083E8891C
:10036000F98980818064808381E090E0DF91CF9182
:100370001F910F91FF90EF900895CF93DF93EC01C1
:10038000888D8823C9F0EA89FB89808185FD05C0B5
:10039000A889B9898C9186FD0FC00FB607FCF5CFEF
:1003A000808185FFF2CFA889B9898C9185FFEDCF37
:1003B000CE010E945501E7CFDF91CF91089580E0F3
:1003C00090E0892B29F00E944B0181110C940000D0
:1003D00008953FB7F8948091530190915401A091F2
:1003E0005501B091560126B5A89B05C02F3F19F0C5
:1003F0000196A11DB11D3FBFBA2FA92F982F8827A5
:10040000820F911DA11DB11DBC01CD0142E0660FFF
:10041000771F881F991F4A95D1F70895009769F0B3
:10042000FC0101900020E9F73197AF01481B590BFF
:10043000BC018DE591E00C94DF0080E090E0089530
:100440008F929F92AF92BF920F931F93CF93DF93A0
:10045000CDB7DEB7A1970FB6F894DEBF0FBECDBF04
:1004600019A2423008F44AE08E010F5D1F4F842E1E
:10047000912CA12CB12CA50194010E943E08E62FDD
:10048000B901CA0101501109EA3014F4E05D01C05C
:10049000E95CD801EC93232B242B252B61F7C801B1
:1004A0000E940E02A1960FB6F894DEBF0FBECDBF1C
:1004B000DF91CF911F910F91BF90AF909F908F9040
:1004C00008954F925F926F927F928F929F92AF9218
:1004D000BF92CF92DF92EF92FF926B017C01B42E1C
:1004E0009B01AC010E943908882319F082E191E058
:1004F00027C026013701E89477F82FEF3FEF4FE749
:100500005FE7C301B2010E94390881110DC02FEFCE
:100510003FEF4FE75FE7C301B2010E94680618167C
:100520001CF486E191E00CC02FEF3FEF4FE75FE452
:10053000C701B6010E94C707181684F48AE191E04A
:10054000FF90EF90DF90CF90BF90AF909F908F90F3
:100550007F906F905F904F900C940E022FEF3FEFC3
:100560004FE75FECC701B6010E94680687FDE6CF42
:1005700020E030E0A901C701B6010E94680687FFAC
:1005800009C08DE20E948C004C01F7FAF094F7F854
:10059000F09402C0812C912CA12C60E070E080E0EE
:1005A0009FE3AB1441F020E030E040E251E40E94D0
:1005B0006D06A394F6CF9B01AC01C701B6010E9462
:1005C000FC052B013C010E94E6066B017C010E94A8
:1005D00015079B01AC01C301B2010E94FB052B0171
:1005E0003C014AE0C701B6010E9420027C01E80CF0
:1005F000F91CBB2029F08EE20E948C00E80EF91E47
:10060000DB2CDD2021F120E030E040E251E4C301A9
:10061000B2010E94CC072B013C010E94E6064B016F
:10062000A12CB12C4AE0C501B4010E942002E80EC1
:10063000F91EC501B4010E9415079B01AC01C3015D
:10064000B2010E94FB052B013C01DA94DACFC7010D
:10065000FF90EF90DF90CF90BF90AF909F908F90E2
:100660007F906F905F904F9008950E9466081F9250
:100670000F920FB60F9211242F933F934F935F93D6
:100680006F937F938F939F93AF93BF93EF93FF935A
:100690008DE591E00E945501FF91EF91BF91AF91DF
:1006A0009F918F917F916F915F914F913F912F918A
:1006B0000F900FBE0F901F9018951F920F920FB6BC
:1006C0000F9211242F938F939F93EF93FF93E091B9
:1006D0006D01F0916E018081E0917301F0917401E0
:1006E00082FD12C09081809176018F5F8F7320917F
:1006F0007701821751F0E0917601F0E0E35AFE4F66
:10070000958F8093760101C08081FF91EF919F9139
:100710008F912F910F900FBE0F901F9018951F92E1
:100720000F920FB60F9211242F933F938F939F93A5
:10073000AF93BF9380914F0190915001A0915101CF
:10074000B091520130914E0123E0230F2D3720F458
:100750000196A11DB11D05C026E8230F0296A11D1B
:10076000B11D20934E0180934F0190935001A093AF
:100770005101B09352018091530190915401A09185
:100780005501B09156010196A11DB11D80935301F1
:1007900090935401A0935501B0935601BF91AF912E
:1007A0009F918F913F912F910F900FBE0F901F90AF
:1007B0001895CF92DF92EF92FF920F931F93E82F3D
:1007C000F92F05C0015011092109310961F190810A
:1007D00096239417B9F305C0015011092109310975
:1007E00011F1908196239413F7CFC12CD12CE12CD9
:1007F000F12C0AC08FEFC81AD80AE80AF80A0C15BB
:100800001D052E053F0579F080818623841791F31D
:100810006C2D7D2D8E2D9F2D1F910F91FF90EF90B0
:10082000DF90CF90089560E070E080E090E01F914D
:100830000F91FF90EF90DF90CF900895789484B55A
:10084000826084BD84B5816084BD85B5826085BDCC
:1008500085B5816085BD80916E00816080936E005A
:10086000109281008091810082608093810080914C
:1008700081008160809381008091800081608093FD
:1008800080008091B10084608093B1008091B000BD
:1008900081608093B00080917A00846080937A00B8
:1008A00080917A00826080937A0080917A008160E2
:1008B00080937A0080917A00806880937A00109209
:1008C000C100E3EAF0E02491EFE8F0E084918823AE
:1008D00099F090E0880F991FFC01E859FF4FA5910E
:1008E000B491FC01E458FF4F859194918FB7F8942F
:1008F000EC91E22BEC938FBFE4EAF0E02491E0E985
:10090000F0E084918823C1F090E0880F991FFC01EA
:10091000E859FF4FC591D491FC01E458FF4FA591D0
:10092000B4919FB7F8948881E22FE0958E23888355
:100930008C91E823EC939FBFE0916D01F0916E01E3
:1009400082E08083E0916901F0916A011082E09178
:100950006B01F0916C018FEC808310927501E09136
:100960007101F091720186E08083E0916F01F09156
:100970007001808180618083E0916F01F09170014E
:10098000808188608083E0916F01F09170018081A7
:1009900080688083E0916F01F091700180818F7D8C
:1009A000808320E4322EC3E0D0E033E2E32EF12C4A
:1009B00044EAC42E40E0D42E30927C0080917A002C
:1009C000806480937A0080917A0086FDFCCF6091EC
:1009D00078008091790070E0782B072E000C880B4E
:1009E000990B0E94170720E030EC4FE754E40E9477
:1009F0006D0620E030E040EA50E40E94CC0721E799
:100A00003DE34AE05EE30E94FB0523EA31E04CE36C
:100A10005DE30E946D0620E030E040E751E40E9473
:100A2000FC052B013C0180E00E949700CE0101975C
:100A3000F1F781E00E949700C7010197F1F780E08C
:100A40000E949700F6016491E0E9F0E08491E82FBC
:100A5000F0E0EE0FFF1FEE58FF4F8591949100E4F8
:100A600012E42FE030E0462F0E94D9036115710592
:100A70008105910549F0DC01CB010196A11DB11D55
:100A8000BC01CD019F7003C060E070E0CB016093BA
:100A9000590170935A0180935B0190935C010E940D
:100AA000170726E933E44BE05DE30E94CC0720E022
:100AB00030E040E05FE30E94CC070E94DF067093C5
:100AC0005801609357018EE191E00E940E026091FF
:100AD0005701709158014B01770FAA08BB08B7FE68
:100AE0000CC08DE20E948C0066277727CB01681925
:100AF00079098A099B094AE003C04AE0C501B401AB
:100B00000E94200288E291E00E940E0242E0C301AE
:100B1000B2010E94610283E391E00E940E0242E072
:100B200064E076E580E091EC0E9461028EE391E062
:100B30000E940E0242E06AE574EA8CED92E40E94A3
:100B400061028AE491E00E940E020E94E9014B01D9
:100B50005C0184E6482E512C612C712C0E94E90125
:100B6000DC01CB0188199909AA09BB09883E934089
:100B7000A105B10558F0F1E04F1A5108610871085C
:100B800028EE820E23E0921EA11CB11C41145104D8
:100B90006104710419F70E94DF010ECFEDE5F1E069
:100BA0001382128288EE93E0A0E0B0E08483958304
:100BB000A683B78384E091E09183808385EC90E005
:100BC0009587848784EC90E09787868780EC90E017
:100BD000918B808B81EC90E0938B828B82EC90E008
:100BE000958B848B86EC90E0978B868B118E128E82
:100BF000138E148E08955058BB27AA270E941306FF
:100C00000C948D070E947F0738F00E94860720F021
:100C100039F49F3F19F426F40C947C070EF4E09508
:100C2000E7FB0C947607E92F0E949E0758F3BA174A
:100C3000620773078407950720F079F4A6F50C94F2
:100C4000C0070EF4E0950B2EBA2FA02D0B01B901B1
:100C500090010C01CA01A0011124FF27591B99F032
:100C6000593F50F4503E68F11A16F040A22F232F3E
:100C7000342F4427585FF3CF469537952795A7958E
:100C8000F0405395C9F77EF41F16BA0B620B730B35
:100C9000840BBAF09150A1F0FF0FBB1F661F771FA6
:100CA000881FC2F70EC0BA0F621F731F841F48F45B
:100CB000879577956795B795F7959E3F08F0B0CFE4
:100CC0009395880F08F09927EE0F979587950895CB
:100CD0000E94520708F481E008950E9481060C9456
:100CE0008D070E94860758F00E947F0740F029F484
:100CF0005F3F29F00C94760751110C94C1070C94B6
:100D00007C070E949E0768F39923B1F3552391F362
:100D1000951B550BBB27AA2762177307840738F06A
:100D20009F5F5F4F220F331F441FAA1FA9F335D0C7
:100D30000E2E3AF0E0E832D091505040E695001C7B
:100D4000CAF72BD0FE2F29D0660F771F881FBB1F35
:100D5000261737074807AB07B0E809F0BB0B802D13
:100D6000BF01FF2793585F4F3AF09E3F510578F03F
:100D70000C9476070C94C1075F3FE4F3983ED4F3DC
:100D8000869577956795B795F7959F5FC9F7880F13
:100D9000911D9695879597F90895E1E0660F771F65
:100DA000881FBB1F621773078407BA0720F0621BF6
:100DB000730B840BBA0BEE1F88F7E09508950E9421
:100DC000E6066894B1110C94C10708950E94A60725
:100DD00088F09F5798F0B92F9927B751B0F0E1F0FC
:100DE000660F771F881F991F1AF0BA95C9F714C0AC
:100DF000B13091F00E94C007B1E008950C94C00793
:100E0000672F782F8827B85F39F0B93FCCF38695E4
:100E100077956795B395D9F73EF490958095709541
:100E200061957F4F8F4F9F4F0895E89409C097FBBE
:100E30003EF490958095709561957F4F8F4F9F4FB1
:100E40009923A9F0F92F96E9BB279395F6958795F5
:100E500077956795B795F111F8CFFAF4BB0F11F4B8
:100E600060FF1BC06F5F7F4F8F4F9F4F16C088235F
:100E700011F096E911C0772321F09EE8872F762F95
:100E800005C0662371F096E8862F70E060E02AF0D6
:100E90009A95660F771F881FDAF7880F96958795C2
:100EA00097F90895990F0008550FAA0BE0E8FEEF97
:100EB00016161706E807F907C0F012161306E4071E
:100EC000F50798F0621B730B840B950B39F40A2617
:100ED00061F0232B242B252B21F408950A2609F4F5
:100EE000A140A6958FEF811D811D089597F99F67F9
:100EF00080E870E060E008959FEF80EC08950024A2
:100F00000A941616170618060906089500240A946E
:100F100012161306140605060895092E0394000CF4
:100F200011F4882352F0BB0F40F4BF2B11F460FF83
:100F300004C06F5F7F4F8F4F9F4F089557FD9058AC
:100F4000440F551F59F05F3F71F04795880F97FB8D
:100F5000991F61F09F3F79F0879508951216130647
:100F60001406551FF2CF4695F1DF08C01616170676
:100F70001806991FF1CF86957105610508940895AB
:100F8000E894BB2766277727CB0197F908950E943D
:100F9000520708F48FEF08950E94DF070C948D0725
:100FA0000E947F0738F00E94860720F0952311F0F9
:100FB0000C9476070C947C0711240C94C1070E94B2
:100FC0009E0770F3959FC1F3950F50E0551F629FE8
:100FD000F001729FBB27F00DB11D639FAA27F00D92
:100FE000B11DAA1F649F6627B00DA11D661F829FB9
:100FF0002227B00DA11D621F739FB00DA11D621F9E
:10100000839FA00D611D221F749F3327A00D611DBA
:10101000231F849F600D211D822F762F6A2F11249C
:101020009F5750409AF0F1F088234AF0EE0FFF1FCF
:10103000BB1F661F771F881F91505040A9F79E3F26
:10104000510580F00C9476070C94C1075F3FE4F3E0
:10105000983ED4F3869577956795B795F795E7957C
:101060009F5FC1F7FE2B880F911D9695879597F985
:1010700008950E945207880B990B0895A1E21A2E39
:10108000AA1BBB1BFD010DC0AA1FBB1FEE1FFF1F2C
:10109000A217B307E407F50720F0A21BB30BE40B7C
:1010A000F50B661F771F881F991F1A9469F76095C3
:1010B0007095809590959B01AC01BD01CF0108957D
:1010C000EE0FFF1F0590F491E02D099481E090E070
:0A10D000F8940C946B08F894FFCF1D
:1010DA00000000007601DF000E01BD013F011D0185
:1010EA0031016E616E00696E66006F766600646932
:1010FA007374616E63653E002070726573737572F6
:10110A00653E00206C617469747564653E00206CEC
:0E111A006F6E6769747564653E000D0A000013
:00000001FF
